:100000000205F290E6BAE0F50F223202075BC0E08B
:10001000C083C082D2015391EF90E65D7401F0D0AD
:1000200082D083D0E032E4F5B243B278C284D28584
:10003000D2832202004F90E50DE0D330E401C322C9
:10004000D32232020400EF6003C28322D283225300
:10005000D8EF32020400E5BA20E11490E780E0FF17
:10006000120A5700000090E68D7480F0000000E551
:100070000ED39400400F00000090E68FE50EF000D4
:100080000000E4F50EE5AA20E02CE490E691F000F3
:10009000000090E6ABE090E6D0F000000090E6AC07
:1000A000E090E6D1F0000000E4F5BB000000E5BB05
:1000B00030E7FB000000D3E5119400E510940050F8
:1000C00003020178E5AA20E003020178E4751B32FF
:1000D000F51AF519F518D28CE5BB20E713E4FFFEFD
:1000E000FDFCAB1BAA1AA919A818D3120BA750E83C
:1000F000C28CE4FFFEFDFCAB1BAA1AA919A818C309
:10010000120BA77002806DE5AC20E067E51090E669
:10011000D0F000000090E6D1E511F000000075BBC2
:1001200006000000E4751B32F51AF519F518D28C9B
:10013000E5BB20E713E4FFFEFDFCAB1BAA1AA919DF
:10014000A818D3120BA750E8C28CE4FFFEFDFCAB4D
:100150001BAA1AA919A818C3120BA7700DC2837F76
:1001600001FE120951D283E4800A90E6487406F039
:10017000000000E4F510F5112290E6B8E0541F14D9
:10018000601514601B2402705BA200E43325E0FFBD
:10019000A202E4334F8044E490E740F0A3F0804BA8
:1001A00090E6BCE0FF547EFD7C00EFD394807E009F
:1001B00040047F0180027F00EE4CFEEF4D24DDF510
:1001C00082740B3EF583E493FF3395E0FEEF24A1A8
:1001D000FFEE34E68F82F583E0540190E740F0E4CF
:1001E000A3F0800790E6A0E04401F0E490E68AF0F6
:1001F00090E68B7402F022D3223232323232323223
:1002000012010002FF00004010C500B10100010210
:1002100000010A06000200000040010009022E0051
:1002200001010080320904000004FF0000000705FE
:10023000010240000007058102400000070502029C
:100240000002000705860200020009022E000101DB
:100250000080320904000004FF00000007050102CD
:10026000400000070581024000000705020240002F
:10027000000705860240000004030904260343002A
:100280002D0053004B00590020004D006900630011
:1002900072006F00730079007300740065006D00D8
:1002A0007300200343002D0053004B005900200031
:1002B00043004B004C0069006E006B0020005600AC
:1002C00031000000C1056080E000810101BF010133
:1002D00001070100000302020200070607070707E3
:1002E0000703090000000000003F8101BF01010178
:1002F00001070302010000000000030103030303E0
:100300000303000000000000003F81010101BF0164
:1003100001070100000205000000070607070707A4
:100320000703090000000000003F81013F010101B7
:10033000010703020500000000000301030303039B
:100340000303000000000000003F6024E08700007D
:10035000000000000000000000000000000000009D
:10036000000000000000000000000000000000008D
:10037000000047E080A0100003EE4E00008E138FB7
:1003800014EAF59DE9F59ED3E5149400E513940075
:10039000406890E67CE0F5F0A2F79286D2841209DC
:1003A0000DC284A2F69286D28412090DC284A2F5EF
:1003B0009286D28412090DC284A2F49286D284124B
:1003C000090DC284A2F39286D28412090DC284A2BE
:1003D000F29286D28412090DC284A2F19286D2844E
:1003E00012090DC284A2F09286D28412090DC28431
:1003F000E514151470911513808D22323232323289
:1004000002000E00020B4900020B3300020B030036
:10041000020A21000209E40002000A000200420070
:100420000201F9000201FA000201FB000201FC00D6
:100430000201FD000201FE000201FF000203FB00B9
:100440000203FC00020042000203FD000203FE0062
:100450000203FF00020BC700020BC800020BC90019
:10046000020BCA00020042000200420002004200E9
:10047000020BCB00020BCC00020BCD00020BCE0016
:10048000020BCF00020BD000020BD100020BD200F6
:10049000020BD300020BD400020BD500020BD600D6
:1004A000020BD700020BD800020BD900020BDA00B6
:1004B000020BDB00020BDC0090E60174E2F090E638
:1004C000F574FFF090E080E090E6F3F090E081E0DA
:1004D00090E6C3F090E082E090E6C1F090E083E027
:1004E00090E6C2F090E085E090E6C0F090E086E013
:1004F00090E6F4F074E0F59A7400F59B759DE4E4E1
:10050000F59EFF90E67BE090E67CF00FBF80F40064
:100510000000E490E6C4F000000090E6C5F090E032
:1005200087E090E6C6F090E088E090E6C7F090E0C3
:1005300089E090E6C8F090E08AE090E6C9F090E0AB
:100540008BE090E6CAF090E08CE090E6CBF090E093
:100550008DE090E6CCF090E08EE090E6CDF0229039
:10056000E600E054E74410F090E61074A0F00000BC
:100570000090E611F000000090E61274A2F0000076
:1005800000E490E613F000000090E61474E2F0003E
:100590000000E490E615F000000090E6047480F09E
:1005A0000000007482F0000000F0000000E4F000A1
:1005B000000090E618F000000090E619F00000003E
:1005C00090E61AF000000090E61BF000000090E6B4
:1005D000917480F0000000F000000090E68DF000C3
:1005E000000075AF071204B8120BB8120026E4F52C
:1005F0000E22787FE4F6D8FD7581200206390207C5
:10060000C6E493A3F8E493A34003F68001F208DF65
:10061000F48029E493A3F85407240CC8C333C454CA
:100620000F4420C8834004F456800146F6DFE4807E
:100630000B01020408102040809002C4E47E019364
:1006400060BCA3FF543F30E509541FFEE493A36050
:10065000010ECF54C025E060A840B8E493A3FAE4AB
:1006600093A3F8E493A3C8C582C8CAC583CAF0A3FC
:10067000C8C582C8CAC583CADFE9DEE780BE90E686
:10068000B8E0546024E0605024E0604E2440705193
:1006900090E6B9E014601E24FE601F24FD60202453
:1006A000FE6021146023146025146027240B703130
:1006B0001201798033120830802E12089780291297
:1006C00006F08024120B85801F120B73801A120B08
:1006D000968015120003801080071209A55009802A
:1006E0000090E6A0E04401F090E6A0E04480F02213
:1006F00090E6BBE024FE601814603824FD601B14F3
:1007000060272406704D740290E6B3F07400803CBC
:10071000E50890E6B3F0E5098032120036503474F3
:100720000290E6B3F074128023E50A90E6B3F0E598
:100730000B801990E6BAE0FF120AB1AA06A9077B5E
:1007400001EA494B600BEE90E6B3F0EF90E6B4F0AF
:1007500022800090E6A0E04401F022C0E0C0F0C09A
:1007600083C082C0D075D000C000C001C002C003E9
:10077000C004C005C006C007E4FFFEFDFCAB1BAA19
:100780001AA919A818D3120BA7401EAF1BAE1AAD99
:1007900019AC18EF24FFF51BEE34FFF51AED34FF0A
:1007A000F519EC34FFF5188002C28CD007D006D0C2
:1007B00005D004D003D002D001D000D0D0D082D058
:1007C00083D0F0D0E032C204C200C202C2011205DE
:1007D0005F120ADCD2E843D82090E668E04408F0D3
:1007E00090E65CE0443DF0D2AF90E680E054F7F054
:1007F000538EF8C204D20530010512067EC20130C4
:1008000004291200405024C20412093D2000169011
:10081000E682E030E704E020E1EF90E682E030E6B7
:1008200004E020E0E4120A851201F712005680C7A6
:1008300090E6B8E0541F24FE60102402705190E648
:10084000BAE0B40103C20022804590E6BAE0703DF0
:1008500090E6BCE0FF540FFE7C00547E24DDF58260
:10086000EC340BF583E493FD3395E0FCED24A1FD1E
:10087000EC34E68D82F583E054FEF0EF54801313E0
:1008800013541F2E90E683F0E04420F02280009065
:10089000E6A0E04401F02290E6B8E0541F24FE6098
:1008A000162402704F90E6BAE0FFB40103D2002292
:1008B000EFB4020122803D90E6BCE0FF547EFD7C57
:1008C00000EFD394807E0040047F0180027F00EE21
:1008D0004CFEEF4D24DDF582740B3EF583E493FF6F
:1008E0003395E0FEEF24A1FFEE34E68F82F583E03E
:1008F0004401F02290E6A0E04401F0227400F58665
:1009000090FDA57C05A3E582458370F9227400F56E
:100910008690FFFD7C05A3E582458370F92290E671
:1009200080740AF07400F58690E8777C05A3E58270
:10093000458370F9DCF790E6807402F02290E6823D
:10094000E044C0F090E681F0438701000000000021
:10095000228E138F1490E600E0FF530718EF7012F9
:10096000E5142401FFE43513C313F513EF13F51455
:10097000800EBF100BE51425E0F514E51333F513D5
:10098000858615858216858317E5141514AE1370B8
:100990000215134E60051208FC80EE85168285173D
:1009A000838515862290E6B9E0243D6023240370F8
:1009B0003190E6BBE0751000F511E511751100F5F9
:1009C0001090E6BAE04211E47F01FE120951C32201
:1009D00090E74074AAF0E490E68AF090E68B04F089
:1009E000C322D322C0E0C083C08290E680E030E71B
:1009F0002075080275091C850982850883A3740285
:100A0000F0750A02750B4A850B82850A83A3740769
:100A1000F05391EF90E65D7420F0D082D083D0E067
:100A200032C0E0C083C08275080275094A85098218
:100A3000850883A37402F0750A02750B1C850B826E
:100A4000850A83A37407F05391EF90E65D7410F06C
:100A5000D082D083D0E032EF24BE600D14601A142F
:100A6000601F2403701E020B1B90E781E0FF7E00D5
:100A70007B017AE7798402037D90E783E0FF02003F
:100A800046120B5F2290E682E030E004E020E60BA5
:100A900090E682E030E119E030E71590E680E0442E
:100AA00001F07F147E0012095190E680E054FEF0C0
:100AB00022AC0CAD0D8D828C83A3E064037019AE63
:100AC000071FEE7005AF05AE04228D828C83E07A9D
:100AD000002DFDEA3CFC80DDE4FEFF22750C027572
:100AE0000D7890E680E030E70D75080275091C75F9
:100AF0000A02750B4A2275080275094A750A0275C1
:100B00000B1C22C0E0C083C082D2045391EF90E658
:100B10005D7408F0D082D083D0E032C2857F147E2D
:100B200000120951D2852087097F017E00120951E8
:100B300080F422C0E0C083C0825391EF90E65D74E0
:100B400004F0D082D083D0E032C0E0C083C08253B2
:100B500091EF90E65D7402F0D082D083D0E0323025
:100B6000800890E7C07401F08005E490E7C0F0755C
:100B70000E012290E6BAE0F512E4F510F51190E6C8
:100B8000617403F02290E740E512F0E490E68AF009
:100B900090E68B04F02290E740E50FF0E490E68ABF
:100BA000F090E68B04F022EB9FF5F0EA9E42F0E92C
:100BB0009D42F0E89C45F022758AC0758C6353898C
:100BC000F0438901D2A92232323232323232323209
:100BD0003232323232323232323232323200010288
:070BE00002030304040505F4
:00000001FF
