:020000040800F2
:10000000280800201D350008050A0008070A000816
:100010000B0A00080F0A0008130A0008000000007D
:10002000000000000000000000000000170A0008A7
:10003000190A0008000000001B0A00081D0A000839
:1000400037350008373500083735000837350008E0
:1000500037350008373500083735000837350008D0
:1000600037350008373500083735000837350008C0
:1000700037350008373500083735000837350008B0
:100080003735000837350008373500082F0A0008D3
:10009000370A0008373500083735000837350008BB
:1000A0003735000837350008373500083735000880
:1000B0003735000837350008373500083735000870
:1000C0003735000837350008373500083735000860
:1000D0003735000837350008373500083735000850
:1000E00037350008373500083735000800F002F8CA
:1000F00000F05AF80AA090E8000C82448344AAF168
:100100000107DA4501D100F04FF8AFF2090EBAE865
:100110000F0013F0010F18BFFB1A43F0010318473B
:1001200058350000783500000A444FF0000C10F8F4
:10013000013B13F0070408BF10F8014B1D1108BF65
:1001400010F8015B641E05D010F8016B641E01F805
:10015000016BF9D113F0080F1EBF10F8014BAD1C55
:100160000C1B09D16D1E58BF01F801CBFAD505E073
:1001700014F8016B01F8016B6D1EF9D59142D6D3CD
:10018000704700000023002400250026103A28BFF5
:1001900078C1FBD8520728BF30C148BF0B607047F9
:1001A0001FB51FBD10B510BD03F0DBF91146FFF7F9
:1001B000F7FF00F01FFB03F0F9F903B4FFF7F2FFBC
:1001C00003BC03F001FA0000EFF30980704780F3ED
:1001D00009887047EFF30880704780F308887047FC
:1001E00040BA7047C0BA704708B501211C2001F021
:1001F0006BFC4FF48040ADF8000010208DF8030038
:1002000002208DF802006946844801F0A1F94FF4FC
:100210008040824908614000ADF8000069467F488F
:1002200001F096F94FF400407C4908612020ADF8B8
:10023000000069467A4801F08BF94FF48070ADF800
:1002400000006946774801F083F94FF48060ADF80B
:10025000000048208DF803006946724801F078F9E3
:1002600008BD08B501214FF4FE7001F02DFC4FF6DA
:10027000FF70ADF8000000208DF803006946684863
:1002800001F066F96946654801F062F96946664819
:1002900001F05EF96946654801F05AF9694664481B
:1002A00001F056F96946634801F052F908BD10B5EE
:1002B0000121080701F015FC0121402001F0F7FBA6
:1002C000FFF7CFFFFFF790FF10BD38B54FF0FF30BD
:1002D0000021002807DA0A07140E574A00F00F031E
:1002E0001B1FD45403E00A07130E544A135400BFD3
:1002F0004FF4E06000F080FD25208DF80000012023
:100300008DF8020000208DF80300684600F079FDAA
:1003100038BD08B54FF4C06000F06EFD14208DF8B4
:10032000000001208DF801008DF8020000208DF8FA
:100330000300684600F065FD13208DF800000120E1
:100340008DF8010000208DF802008DF8030068464A
:1003500000F057FD08BD10B500214FF0805001F0AE
:10036000C0FB0021402001F0A2FB00214FF400005F
:1003700001F0B7FBFFF775FFFFF7CBFFFFF7A5FF16
:1003800010BD10B5002001F0FFFA0121C80501F0F1
:10039000A8FB10BD03202A49086070472948817ACC
:1003A00019B10521264A116002E00121244A116099
:1003B000704708B54FF4C06000F01EFD14208DF8A2
:1003C000000001208DF801008DF802008DF8030077
:1003D000684600F016FD13208DF8000001208DF80E
:1003E000010000208DF8020001208DF8030068460E
:1003F00000F007FD08BD01B502E00098401E009026
:1004000000980028F9D108BD0F49086000BF0E49C7
:1004100009680029FBD170477047000000100140B7
:10042000000C014000080140001401400018014088
:10043000001C01400020014018ED00E000E400E055
:10044000E0000020AC0100200000002000207047E8
:10045000012080F3138800BF00BFD748006800F474
:10046000E060D6490843001DD3490860BFF34F8FB1
:1004700000BF00BFFEE72DE9F04106460C461546D9
:1004800000F098FAA108304600F09FFA0746AF4204
:1004900002D10020BDE8F0810120FBE72DE9FC5FDF
:1004A00082460AF10304C64D42F20C074FF43C4663
:1004B00014F8018B36E0B8F1410F0ED114F8015B4E
:1004C0002D0214F8010B05432D0214F8010B05430E
:1004D0002D0214F8010B054322E0B8F1420F0ED1B2
:1004E00014F8017B3F0214F8010B07433F0214F894
:1004F000010B07433F0214F8010B074310E0B8F16A
:10050000430F0DD114F8016B360214F8010B0643AA
:10051000360214F8010B0643360214F8010B0643A9
:1005200014F8018BB8F1000FC5D1E81990F801B0AB
:10053000E85D019055F80690A81940680090B14513
:1005400006D9FF209F49087048700220BDE8FC9F33
:1005500049462846009AFFF78EFF28B1FF209949A7
:10056000087048700220F1E7964880F800B095497D
:10057000019848700220E9E730B504460022E11CEA
:1005800011F8013B11E0412B0DD111F8012B1202A2
:1005900011F8010B0243120211F8010B024312027F
:1005A00011F8010B024311F8013B002BEBD10020A5
:1005B000844D2870B2F1006F06D08348026001209C
:1005C000824D28607F4D2870012030BD10B500F0AD
:1005D000ACFC00207B490870012010BD2DE9F047DC
:1005E00007460025002697F80180FC1C14F8019BA3
:1005F00012E0B9F1410F0DD114F8015B2D0214F88E
:10060000010B05432D0214F8010B05432D0214F8CC
:10061000010B054314F8019BB9F1000FE9D1002645
:100620001BE014F8016B14F8011B46EA012614F8CC
:10063000011B46EA014614F8011B46EA01663146F1
:10064000284600F07BFD2868B04200D008E0002674
:100650002D1DA8F1040000F0FF08B8F1000FE0DC48
:1006600000BFB8F1000F03DD01205649087002E019
:100670000020544908700120BDE8F0872DE9F047BB
:100680008146002600254FF0040A09F1030414F8FE
:10069000018B24E0B8F1410F0ED114F8016B360242
:1006A00014F8010B0643360214F8010B0643360218
:1006B00014F8010B064310E0B8F1420F0DD114F805
:1006C000015B2D0214F8010B05432D0214F8010BF8
:1006D00005432D0214F8010B054314F8018BB8F102
:1006E000000FD7D1002707E04FF4806101FB0760BE
:1006F00000F054FC82467F1CAF4202D2BAF1040FD4
:10070000F2D0AF4203D201202E49087002E000204F
:100710002C4908700120BDE8F08710B500F0F9FB06
:10072000002028490870012010BD10B50024284978
:10073000012002F0E8FD264800786138092824D21B
:10074000DFE800F01705090E2323131C2100FFF733
:10075000E4FF04461DE01E48FFF790FF044618E042
:100760001B48FFF73BFF044613E0FFF72FFF04464B
:100770000FE01748FFF700FF04460AE01448FFF7B0
:100780008DFE044605E0FFF763FEFFF75FFE0446BB
:1007900000BF00BF002C08DD22460A49812002F07C
:1007A0009BFD3021012002F0D6F94FF44051012089
:1007B00002F0EFF910BD00000CED00E00000FA05BA
:1007C000004000086C010020080000200C00002000
:1007D0002C01002010B5044660686A49086008468C
:1007E0000068694908602068FFF7F7FC6648006800
:1007F000804710BD2DE9F041FFF759FDFFF7D9FD06
:10080000FFF7BFFD01F06CFF042000F044FB5F48E0
:1008100000684FF47A72B0FBF2F1B1F1807F01D33E
:1008200001201DE021F07F40401E4FF0E02250618A
:1008300050170F22002807DA13071F0E544B00F041
:100840000F06361F9F5503E013071E0E514B1E5413
:1008500000BF00204FF0E0229061072010610020CF
:1008600008B100BFFEE70DE04FF480404A494861FF
:100870006420FFF7C9FD4FF48040474908616420B8
:10088000FFF7C2FD454800680528EDD14FF48040D0
:1008900041494861C820FFF7B7FD7C2000F0E9FF1F
:1008A00028B94FF480613E4800F0E5FE50BB01F0EE
:1008B00049F926E04FF48040374948614FF4FA7017
:1008C000FFF7A2FD4FF48040334908614FF4FA70FE
:1008D000FFF79AFD3348006898B14FF480402E49E5
:1008E0004861C820FFF790FD4FF480402A49086115
:1008F000C820FFF789FDFFF72EFD2B480068FFF7A2
:1009000069FFD7E701F01EF928480468001D056853
:10091000B4F5784F00D910242A4621462448FFF721
:10092000AAFD30B324E04FF480401B494861C82041
:10093000FFF76AFD4FF4804017490861C820FFF7B0
:1009400063FD1848006898B14FF48040124948612F
:10095000C820FFF759FD4FF480400F490861C820B7
:10096000FFF752FDFFF7F7FC0F480068FFF732FF73
:10097000D9E7FFF7F0FC0E48FFF72CFF0020BDE899
:10098000F081000010000020140000201801002059
:1009900018ED00E000E400E000100140E00000205D
:1009A000000801400C0000200800002000FC0008A6
:1009B000004000080120124988607047014608BACB
:1009C0000F4A106010460068704710B502460B468B
:1009D000002100BF05E052F8210000BA084C206059
:1009E000491C9942F7D30648006810BD04480068C6
:1009F000704703490871704701480079704700004B
:100A000000300240704700BFFEE700BFFEE700BFB6
:100A1000FEE700BFFEE77047704770470848006870
:100A200020B107480068401E05490860704710B5AE
:100A300001F0A8FF10BD10B500F00EF810BD0000C9
:100A40000000002010B5FFF770FE10BD0120014925
:100A5000087070470400002010B537480068374917
:100A600008800846008800F400403549098808409D
:100A700008B101F053FE3148008800F4806030492D
:100A80000988084030B14FF6FF302B4908602D49E6
:100A9000486880472948008800F4005028490988A0
:100AA000084018B14DF6FF702349086023480088BC
:100AB00000F4805022490988084030B14EF6FF709A
:100AC0001D490860002000F039F91C48008800F436
:100AD00000601B490988084060B11B48007810B1CC
:100AE00000F00CF902E0022000F028F94FF2FF704C
:100AF000114908601148008800F400701049098805
:100B0000084040B14FF6FF500B4908600F4800788D
:100B1000401C0E4908700948008800F4807008499C
:100B20000988084030B14FF6FF600349086007208C
:100B300000F004F910BD0000445C004018000020E3
:100B40000E0100205C000020E40000201A000020BC
:100B500010B500204C490968887200F0A7F802F02F
:100B6000ADFB00204949086010BD10B50020464982
:100B70000968887244490968C8724548C079424981
:100B800009684872002001F0B3FF4FF400710020A3
:100B900001F0C8FF1021002001F0DDFF1821002026
:100BA00002F097F95821002002F087F9002002F0A6
:100BB0008FF8384890F82C10002002F0D0F900206F
:100BC00002F04AF843F2210033490860A0210120D5
:100BD00002F07FF9E021012002F06FF940210120AD
:100BE00002F0BDF92B4890F82C10002002F0B7F964
:100BF000002002F031F8002001F0E3FC012023493D
:100C0000086010BD20480068807A30B105201F4977
:100C100008604FF4804021494861704704201B4917
:100C200008607047704770470146002070470146D2
:100C30000020704710B504461949204601F0B7F965
:100C400010BD10B504461749204601F0B0F910BD9B
:100C500070B505460C480068C478042C01DD0020FE
:100C600070BD114800EBC401284601F0A0F9F7E778
:100C70000246002901DD02207047002A01DD022022
:100C8000FAE70020F8E7000004010020E00000205F
:100C9000E83500085C000020045C004000100140C2
:100CA000B0000020B8000020C000002020204D4AE5
:100CB0001060C0004C4A106001214C4801600020C7
:100CC0004B4A108010460088484A10600020121DD0
:100CD00010604FF4E050464A108010460088434AA6
:100CE0001060002070470120404908600020091D65
:100CF00008600320091F08600020704710B53B48BA
:100D0000006884B244F0080438480460006884B283
:100D100044F0040435480460FFF73CFB10BD10B5F7
:100D20003248006884B224F0040430480460FFF7BD
:100D300035FB4FF43F402D49086010BD70B50546A6
:100D4000072D01D02B4805702A480078082841D289
:100D5000DFE800F0040A1016212E4142FFF7DFFF02
:100D60000620244908703BE0FFF7D9FF0420214901
:100D7000087035E002201F494870032008702FE0FA
:100D80001C484078401E1B4948700846407808B906
:100D90000420087024E01548006884B244F0100470
:100DA000124804600520134908700A20487017E0B3
:100DB00010484078401E0F4948700846407840B9B6
:100DC0000A48006884B224F0100408480460062031
:100DD000087005E000BF00BF06200649087000BF8C
:100DE00000BF70BD100C014014080140405C004081
:100DF0000E010020E500002031490143314A116015
:100E0000704770B5002100230F22C47804B32D4C25
:100E1000246804F4E064C4F5E064210AC1F1040329
:100E2000CA40447804FA03F184781440214309014C
:100E3000254C0678A155047804F01F050124AC4028
:100E400005786D11AD0005F1E025C5F8004109E018
:100E5000047804F01F050124AC401C4D067876117F
:100E600045F8264070BD1A4A0A400243154B1B1F25
:100E70001A60704739B1134A121D12680243114BB0
:100E80001B1D1A6006E00F4A121D126882430D4BAB
:100E90001B1D1A607047042808D14FF0E021096932
:100EA00041F004014FF0E022116107E04FF0E02132
:100EB000096921F004014FF0E02211617047000040
:100EC0000000FA050CED00E000E400E080E100E045
:100ED00080FFFF1F01460020FE4A106800F0380026
:100EE000084310607047FB49096821F00801F94A7E
:100EF000116011460968014311607047F54909689E
:100F000021F01001F34A1160114609680143116094
:100F10007047F148EF494860F04848607047EE4834
:100F2000EC494860ED4848607047EA48006940F085
:100F30008000E84908617047E648006940F0800099
:100F4000E449086170470420E249C96801F00101E1
:100F500009B101200EE0DF49C96801F0040109B1BF
:100F6000022007E0DB49C96801F0100109B1032044
:100F700000E00420704700B502460423FFF7E3FFBA
:100F8000034603E0FFF7DFFF0346521E012B01D1AA
:100F9000002AF7D102B90523184600BD30B5044632
:100FA00004254FF43020FFF7E6FF0546042D17D146
:100FB000C848006940F00200C6490861084644611B
:100FC000006940F0400008614FF43020FFF7D3FF84
:100FD0000546C048006941F6FD710840BD490861F9
:100FE000284630BD10B504244FF43020FFF7C3FF6E
:100FF0000446042C16D1B748006940F00400B549F6
:1010000008610846006940F0400008614FF4302054
:10101000FFF7B1FF0446AF48006941F6FB71084095
:10102000AC490861204610BD00B502460423FFF715
:101030008AFF034603E0FFF786FF0346521E012B9B
:1010400001D1002AF7D102B90523184600BD10B519
:1010500004244FF43020FFF7E7FF0446042C16D198
:101060009C48006940F004009A49086108460069FC
:1010700040F0400008614FF43020FFF7D5FF0446F0
:101080009448006941F6FB71084092490861204686
:1010900010BD00208F49C96901F0020109B101208A
:1010A00000E00020704730B5A5250424FFF7F1FFCC
:1010B00000B100254FF43020FFF75DFF0446042CFB
:1010C0003AD1854883498860844888600846006929
:1010D00040F0200008610846006940F040000861C7
:1010E0004FF43020FFF747FF0446042C1BD179480A
:1010F000006941F6DF7108407649086108460069D9
:1011000040F01000086176480580E002FFF733FFE9
:101110000446052C10D06F48006941F6EF71084075
:101120006C49086108E0052C06D06A48006941F660
:10113000EF71084067490861204630BD78B5064622
:101140000C46042500200090E802FFF714FF054636
:10115000042D24D15F48006940F001005D49086119
:101160003480E802FFF707FF0546042D10D1B01CBC
:101170000090200C00990880E802FFF7FCFE05466D
:101180005448006941F6FE7108405249086106E082
:101190005048006941F6FE7108404E4908612846F2
:1011A00078BD70B504460D460426F002FFF7E3FE55
:1011B0000646042E11D14748006940F00100454918
:1011C00008612580F002FFF7D6FE06464148006917
:1011D00041F6FE7108403F490861304670BD70B568
:1011E00005460E460424E002FFF7C5FE0446042C23
:1011F00017D13948374988603848886008460069FF
:1012000040F0100008612E80E002FFF7B4FE0446B3
:10121000052C06D02F48006941F6EF7108402D4992
:101220000861204670BD2DE9F04304464FF6FF7675
:101230003746B046B1460425E443E6B2C4F3072777
:10124000C4F307484FEA1469E802FFF794FE054625
:10125000042D49D120481F498860204888600846ED
:10126000006940F010000861FF2E06D01C480830CD
:101270000680E802FFF77FFE0546042D08D1FF2F08
:1012800006D017480A300780E802FFF774FE0546CB
:10129000042D0AD1B8F1FF0F07D011480C30A0F887
:1012A0000080E802FFF767FE0546042D0AD1B9F178
:1012B000FF0F07D00A480E30A0F80090E802FFF7B1
:1012C0005AFE0546052D0FD00248006941F6EF7120
:1012D000084007E00020024023016745AB89EFCDBD
:1012E00000F8FF1F664908612846BDE8F08330B565
:1012F000054604244FF43020FFF73DFE0446042C3D
:1013000041D160485E4988605F488860084600694E
:1013100040F0200008610846006940F04000086184
:101320004FF43020FFF727FE0446042C22D1544806
:10133000006941F6DF7108405149086108460069BB
:1013400040F0100008611DB100205049088002E003
:10135000A5204E4908804FF43020FFF70CFE0446CC
:10136000052C10D04648006941F6EF710840444909
:10137000086108E0052C06D04148006941F6DF719C
:1013800008403F490861204630BDF0B505460E468D
:10139000174604243B483A4988603B488860E0028D
:1013A000FFF7E9FD0446042C19D13548006940F0E7
:1013B00010003349086147F0F800304328433349AF
:1013C000891C0880E002FFF7D6FD0446052C06D0F4
:1013D0002B48006941F6EF71084029490861204611
:1013E000F0BD2748C069800870472548006A7047EB
:1013F00000202349096801F0200109B1012000E023
:101400000020704729B11E4A126902431C4B1A6121
:1014100004E01B4A12698243194B1A617047014666
:101420000020012908D1164AD26902F001020AB14E
:10143000012008E0002006E0114AD2680A400AB103
:10144000012000E0002070470D49C860704704206B
:101450000B49C96801F0010109B101200EE00849FA
:10146000C96801F0040109B1022007E00449C96814
:1014700001F0100109B1032000E0042070470000D2
:101480000020024023016745AB89EFCD00F8FF1F24
:1014900010B50446CC48844208D10121042000F054
:1014A0002DFB0021042000F029FB46E0C7488442C0
:1014B00008D10121082000F021FB0021082000F0C4
:1014C0001DFB3AE0C248844208D10121102000F0FF
:1014D00015FB0021102000F011FB2EE0BD488442D6
:1014E00008D10121202000F009FB0021202000F07C
:1014F00005FB22E0B848844208D10121402000F0D9
:10150000FDFA0021402000F0F9FA16E0B3488442C9
:1015100008D10121802000F0F1FA0021802000F0A4
:10152000EDFA0AE0AE48844207D10121801500F0AF
:10153000E5FA0021A01500F0E1FA10BD10B5012177
:10154000084600F0DBFA0021012000F0D7FA10BDB8
:101550002DE9F0410246002500260020002300244A
:10156000002791F803C00CF00F0591F803C00CF0B0
:10157000100CBCF1000F03D091F802C04CEA050535
:1015800091F800C0BCF1000F31D0146800202BE0AE
:101590004FF0010C0CFA00F3B1F800C00CEA03069E
:1015A0009E4220D183004FF00F0C0CFA03F7BC438E
:1015B00005FA03FC4CEA040491F803C0BCF1280FBF
:1015C00006D14FF0010C0CFA00FCC2F814C00AE07E
:1015D00091F803C0BCF1480F05D14FF0010C0CFA93
:1015E00000FCC2F810C0401C0828D1D31460B1F828
:1015F00000C0BCF1FF0F34DD546800202EE000F184
:10160000080C4FF0010808FA0CF3B1F800C00CEA1E
:1016100003069E4221D183004FF00F0C0CFA03F712
:10162000BC4305FA03FC4CEA040491F803C0BCF186
:10163000280F05D100F1080C08FA0CF8C2F8148044
:1016400091F803C0BCF1480F07D100F1080C4FF02E
:10165000010808FA0CF8C2F81080401C0828CED304
:101660005460BDE8F0814FF6FF7101800221817066
:101670000421C17070470246002093680B400BB1F3
:10168000012000E0002070470146886880B2704762
:1016900002460020D3680B400BB1012000E000207F
:1016A00070470146C86880B2704701617047416168
:1016B00070470AB1016100E041617047C160704745
:1016C0004FF480320A43826181618261826982695A
:1016D000704702460020434B18684FF6807318404D
:1016E00040EA021008433F4B186070473E49C8610A
:1016F0007047F0B50A46002300240021002500F0C1
:101700000046B6F1004F02D1364EF16901E0354E88
:101710007168C0F3034583B200F44016B6F5401F6C
:1017200008D121F070612F4E766826F070662D4F3B
:101730007E6012E000F48016B6F5801F06D1032605
:1017400006FA05F4A14341F0706106E0460D36014A
:1017500003FA06F6B14341F0706122B1460D36013D
:1017600003FA06F6314300F00046B6F1004F02D10D
:101770001C4EF16101E01B4E7160F0BD30B50022DE
:101780008B071C0F0F2303FA04F2164B08338C103F
:1017900053F824309343134C08348D1044F825300B
:1017A00023468C1053F824308C07240F00FA04F4DD
:1017B00023430C4C08348D1044F8253030BD0A49C1
:1017C000DC3108607047000000080140000C014057
:1017D000001001400014014000180140001C0140AD
:1017E000002001400000014000002042DF48006866
:1017F00040F00100DD49086008464068DC490840C7
:10180000DA49486008460068DA490840D749086064
:101810000846006820F4802008600846406820F4EC
:10182000FE0048604FF41F0088607047CF49096888
:1018300021F48031CD4A11601146096821F48021DC
:101840001160B0F5803F03D0B0F5802F0ED106E0D7
:10185000C649096841F48031C44A116007E0C349B0
:10186000096841F4A021C14A116000E000BF00BF37
:10187000704710B501460022002300204A11012ABA
:1018800002D1BA4C236806E0022A02D1B74C236A7F
:1018900001E0B64C636A01F01F02012494401C4031
:1018A0000CB1012000E0002010BD38B500200090F0
:1018B0000024002500BF3120FFF7DBFF054600981C
:1018C000401C00900098B0F5A06F01D0002DF2D020
:1018D0003120FFF7CEFF08B1012400E000242046AC
:1018E00038BD01460020A14A106820F0F80040EA07
:1018F000C10010607047A049086070470246002090
:101900009A4B586820F47C1042EA01031843974B25
:101910005860704798490866704701460020934A0E
:10192000506820F003000843506070478F484068BB
:1019300000F00C007047014600208C4A506820F0EF
:10194000F00008435060704701460020874A506805
:1019500020F4E06008435060704701460020834A4D
:10196000506820F4605040EAC1005060704729B1CF
:101970007E4A527A02437D4B5A7204E07B4A527A85
:1019800082437A4B5A7270477B49D831086070475E
:1019900001460020754A506820F4404008435060DA
:1019A00070470021714A20321170704A82F820106D
:1019B000012802D004280AD104E001216B4A203218
:1019C000117005E00521694A2032117000E000BF66
:1019D00000BF70476949086070476449096A01435C
:1019E000624A11627047654944390860704730B5F2
:1019F00000210022002400235C4D6D6805F00C01DD
:101A000021B1042905D0082923D105E05C4D0560EA
:101A100022E05B4D05601FE0544D6D6805F47012C7
:101A2000524D6D6805F48034022505EB92421CB9D5
:101A3000544D554305600BE04C4D6D6805F4003581
:101A40001DB1504D5543056002E04D4D55430560B5
:101A500002E04B4D056000BF00BF444D6D6805F0CE
:101A6000F0010909484D6B5C0568DD4045603F4D5C
:101A70006D6805F4E061090A434D6B5C4568DD4023
:101A800085603A4D6D6805F46051C90A3E4D6B5C46
:101A90004568DD40C560354D6D6805F44041890BF2
:101AA0003A4D6B5CC568B5FBF3F5056130BD29B1F6
:101AB0002E4A526902432D4B5A6104E02B4A526967
:101AC00082432A4B5A61704729B1284A92690243DE
:101AD000264B9A6104E0254A92698243234B9A611E
:101AE000704729B1214AD2690243204BDA6104E0F0
:101AF0001E4AD26982431D4BDA61704729B11B4AE5
:101B0000D2680243194BDA6004E0184AD268824373
:101B1000164BDA60704729B1144A12690243134B1D
:101B20001A6104E0114A12698243104B1A6170472E
:101B300012494039086070470F49C86470470B4923
:101B4000C87170470948406A40F080700749486290
:101B5000704701460020054A92680A400AB10120F8
:101B600000E0002070470149887270470010024071
:101B70000000FFF8FFFFF6FE0000424280044242F0
:101B800000127A0000093D00E7000020F700002065
:101B900010B504462CB90120F649096808820020D6
:101BA00010BDF549096808688047F24800680A30A6
:101BB000F6E710B5EF480068C078F04949788842E8
:101BC00013DCEC480068807878B9EA4800688088BF
:101BD00058B9E8480068C078E64909688872E6495B
:101BE000096848688047002010BD0220FCE710B556
:101BF00004462CB90120DF4909680882002010BD85
:101C0000DD49096888688047DA4800680C30F6E7E3
:101C100010B5D84B1B68D978D64B1B685879D84B70
:101C20001B689A6990470446D2480068807AE8B1F8
:101C30003CB9D0480068007918B9CE48006880786F
:101C400008B1022010BD8CB9CB490968C86880472B
:101C5000C84800684079C7490968C872C548006823
:101C6000C078C449096808730020EBE70220E9E75F
:101C700010B504462CB90220BE490968088200202C
:101C800010BD0020BF490880BA480068007800F005
:101C90007F0018BBB7490968487A00F0200131B1CC
:101CA000B849097841F00201B64A117005E0B5491A
:101CB000097801F0FD01B34A117000F0400131B123
:101CC000B049097841F00101AE4A117005E0AD4913
:101CD000097801F0FE01AB4A11703AE0A5480068AE
:101CE000007800F07F00012801D1A648C8E7A1488C
:101CF0000068007800F07F00022828D19D4A126811
:101D0000517901F00F0001F080027AB19E4B03EB94
:101D10008002D2F8002C02F03002102A16D1994A23
:101D2000127842F00102974B1A700FE0964B03EBCA
:101D30008002D2F8002C02F44052B2F5805F05D147
:101D4000904A127842F001028E4B1A7001E0002096
:101D500096E789490968086980478A4890E72DE92C
:101D6000F04784480068007800F07F08B8F1000F61
:101D70000AD180480068407A00F0DF007D49096898
:101D800048720020BDE8F087B8F1020F7ED1794893
:101D90000068408818B977480068007908B10220C7
:101DA000F0E7DFF8D89173480068477927F080059D
:101DB0002C4670480068407900F0800038B17249C4
:101DC00001EB8400D0F8000C00F0300606E06E490C
:101DD00001EB8400D0F8000C00F4405699F80000A4
:101DE000A84204D91EB163480068807A08B902206D
:101DF000C8E707F0800080B1634901EB8400D0F8A8
:101E0000000C00F0300010284BD1E0B201F01DF8BA
:101E1000E0B2302100F09FFE43E05B4901EB84001B
:101E2000D0F8000C00F44050B0F5805F39D1E4B92F
:101E3000564A92F82C10E0B201F091F8524A02EBA7
:101E40008401D1F8001C4BF68F7201EA020080F485
:101E5000805080F4005040F4004141F080014A4B32
:101E600003EB8402C2F8001C1BE0E0B200F0D5FFD7
:101E7000454A02EB8401D1F8001C4BF68F7201EA4F
:101E8000020080F4805080F4005000E00FE040F445
:101E9000004141F080013C4B03EB8402C2F8001C7E
:101EA00000BF354909684869804700206AE700BFDC
:101EB000022067E72DE9F0412E480068467926F0B8
:101EC00080073C462B480068407900F0800038B11C
:101ED0002D4901EB8400D0F8000C00F0300506E03D
:101EE000294901EB8400D0F8000C00F44055234848
:101EF0000078A04208D91F480068408820B91DB169
:101F00001C480068807A10B90220BDE8F08106F014
:101F10008000A0B11C4A02EB8401D1F8001C48F6F5
:101F2000BF7201EA020080F0100040F4004141F06D
:101F30008001154B03EB8402C2F8001C14E0124A26
:101F400002EB8401D1F8001C4BF68F7201EA02000B
:101F500080F4805040F4004141F080010A4B03EBD3
:101F60008402C2F8001C00BF0349096888698047E1
:101F70000020CAE7040100201001002059000020C1
:101F800008010020FC000020005000405C00002000
:101F900010B5F7480068407A40F02000F44909681D
:101FA0004872F4490968C8698047002010BD10B51F
:101FB0000246EF480068438A32B98888C01AEC4C60
:101FC00024682082002010BD08681844FBE72DE932
:101FD000F041E748006800F110042688A068C0B10D
:101FE000BEB1A588B54200D93546A8B2A1688847D8
:101FF00007462088401B208060882844608000209D
:1020000000F07FFF8046AAB24146384600F03EFD10
:1020100000BF208850B14FF44050D74908800021BC
:10202000084600F07AFF3020D44908802088A18833
:10203000884204DB0320CE490968087218E0208832
:10204000002804DD0520CA490968087210E02088CC
:1020500070B90620C649096808720021C84800689E
:1020600080B2801CC74A42F810103020C349088053
:10207000BDE8F0812DE9F047BD48006800F110058A
:102080002E88BB480068077AD6B9042F18D1BE48FD
:10209000007801280FD10021B948006880B2801C67
:1020A000B84A42F810103020B449088000BF002020
:1020B000B549087003E007271020B049088027E0E1
:1020C000AC88A64201D8042000E002200746B442B2
:1020D00000D93446A0B2A96888478046002000F0A5
:1020E00005FF8146A2B24946404600F0B5FCA1B2C8
:1020F000002000F012FF2888001B288068882044F8
:10210000688030209D49088000029B49088000BFFC
:10211000974909680F72BDE8F08770B502269448A8
:102120000068447892480068007800F07F0000283A
:1021300044D1092C03D1FFF73CFD06465FE0052C96
:1021400014D18B480068C0787F280BDC8848006871
:10215000807838B986480068808818B98448006853
:10216000807A08B1082565E0002648E0032C0ED1EE
:102170007F480068C078012807D17D4800688088C2
:1021800018B9FFF705FF064639E0022637E0012CB3
:1021900035D177480068C07801280DD174480068AF
:1021A000808848B972480068407A00F0200018B171
:1021B000FFF7D5FD064622E0022620E06C480068C5
:1021C000007800F07F00012805D10B2C17D1FFF714
:1021D0001FFD064613E066480068007800F07F00A7
:1021E00002280BD1012C03D1FFF7B9FD064606E00A
:1021F000032C04D1FFF75EFE064600E002264EB136
:10220000E0B2624A1268516988470646032E01D13E
:1022100009250FE00EB108250CE0062500215848DD
:10222000006880B2801C574A42F810103020534991
:10223000088000BF4E4909680D7270BD2DE9F84F46
:102240004B48006845780027BA46062D1BD1484800
:102250000068007800F07F00002813D14449096825
:102260008878012803D149490968CF690AE0022822
:1022700003D1464909680F6A04E0032802D14349A3
:1022800009684F6AADE0002D67D139480068408881
:10229000002862D136480068C08802285DD13448E1
:1022A00000680079002858D131480068007800F0B3
:1022B0007F0030B92E480068808810B9AFF24F67B0
:1022C0008FE02B480068007800F07F00012811D1D2
:1022D0002749096848792D4909688A69002190478A
:1022E00000287ED122480068807A002879D0AFF299
:1022F0007F6776E01E480068007800F07F000228C3
:102300006FD11B480068407900F00F06184800683C
:10231000407900F0700916480068407900F08000AC
:1023200038B11B4901EB8600D0F8000C00F03008F2
:1023300006E0174901EB8600D0F8000C00F4405885
:1023400014480078B0424CD9B9F1000F49D1B8F126
:10235000000F46D0AFF2E76743E0082D1CD10448D8
:102360000068007800F07F00D8BBAFF2DB7738E080
:10237000040100201001002014010020160100209B
:10238000505C004000600040FE000020080100207A
:1023900000500040590000200A2D22D1C548006895
:1023A000007800F07F0001281BD1C2480068807AC5
:1023B000B8B1C0480068408898B9BE480068007944
:1023C00078B9BC480068C08801280AD1B9490968B1
:1023D0004879B94909688A690021904708B9AFF27C
:1023E000F17757B1B3480068A0F812A0B14800686F
:1023F00087610020B84700240FE0AE4A1268507889
:10240000AD4A1268116988470446032C05D109209A
:10241000A84909680872BDE8F88FA6480068008AD4
:102420004FF6FF71884204D10920A2490968087259
:10243000F1E7022C03D09F480068008A20B90820E9
:102440009C4909680872E6E79A480068007800F03D
:102450008000E0B397480068C08800909548006805
:10246000008A0099884204D9924900980968088234
:1024700023E090480068008A8E490968C98888422C
:102480001BDA8C480068008A8B49096891F82C1087
:10249000884203DA0020894908700EE08548006808
:1024A000008A8549096891F82C1090FBF1F201FB34
:1024B000120010B90120814908707F48006890F827
:1024C0002C107C4800688182FFF7D4FD07E0FFE70D
:1024D000032078490968087200037949088000BF21
:1024E00099E710B5774890F82C10002000F037FDE0
:1024F00070480068007A082805D1400270490880B9
:102500001020714908806B480068007A092801D1C1
:10251000012010BD0020FCE738B501246B4800689D
:1025200080B2001D6A4931F8100080B201EB400012
:10253000009060480068007A092832D0009800783E
:102540005C49096808700098401C00900098007869
:102550005849096848700098401C0090009800EBAA
:1025600044000090009931F8020B009100F0A0FEA9
:10257000504909684880009800EB44000090009999
:1025800031F8020B009100F093FE4A4909688880F7
:10259000009800EB440000900098008845490968C5
:1025A000C880012043490968087242480068C08811
:1025B00010B9FFF7B2FD01E0FFF740FEFFF791FF12
:1025C00038BD30B50146434B1A78002014E00306AD
:1025D000414C04EB9353D3F8003C48F68F742340EE
:1025E00048F280042343C4B2234304063A4D05EB6A
:1025F0009454C4F8003C401C9042E8D341F080035E
:10260000324C241F236030BD10B52A480068047A7C
:10261000022C01D0042C05D1FFF72CFD25480068C1
:10262000047A1CE0062C19D122480068407805285D
:102630000ED120480068007800F07F0040B91D49A5
:102640000968C878FFF7BDFF24490968086A804710
:102650001949096888688047082400E0082415495A
:1026600009680C72FFF73DFF10BD10B511480068F6
:10267000047A022C01D0042C01D1082412E0032C8E
:1026800001D0052C05D1FFF7A2FC0A480068047AA6
:1026900008E0072C05D108490968C8688047082464
:1026A00000E00824034909680C72FFF71AFF10BD07
:1026B000704700000401002008010020FE000020F7
:1026C000140100205C00002016010020505C004036
:1026D0000060004059000020005000401001002020
:1026E00010B50848084908600220096808720748C0
:1026F00007490860074808490860054909680868EB
:10270000804710BDAC010020040100205C000020C7
:10271000080100208C0000201001002008B50020D6
:10272000009022E1C448008800F00F00C3490870FF
:102730000846007800287CD1C1480068C14908805B
:102740000846008800F03000BF490880BD48008876
:1027500000F44050BB490880B94909684BF6BF7284
:1027600001EA020080F4005080F0200040F40041B3
:1027700041F08001B24A1160AF48008800F01000BB
:1027800090BB1046006848F60F710840114608607B
:10279000FFF73AFFAA4909684BF6BF7201EA020047
:1027A000A849098801F4805109B180F48050A549F5
:1027B000098801F4005109B180F40050A249098848
:1027C00001F0100109B180F010009F49098801F063
:1027D000200109B180F0200081B241F4004141F0B4
:1027E0008001974A116008BDFFE79548006880B2F4
:1027F0000090BDF8000000F40060B0B3904800689D
:10280000C0F30E0048F68F7108408D490860FFF74D
:1028100083FE8B4909684BF6BF7201EA02008949C1
:10282000098801F4805109B180F4805085490988F4
:1028300000E056E001F4005109B180F400508249F3
:10284000098801F0100109B180F010007E49098863
:1028500001F0200109B180F0200081B241F4004173
:1028600041F08001764A1160BDE7FFE7BDF8000046
:1028700000F40040002878D071480068C0F30E00D2
:1028800048F68F7108406E490860FFF7EEFE6C490C
:1028900009684BF6BF7201EA02006A49098801F42F
:1028A000805109B180F480506649098801F40051D3
:1028B00009B180F400506449098801F0100109B1A0
:1028C00080F010006049098801F0200109B180F012
:1028D000200081B241F4004141F08001584A11606A
:1028E00081E756480078594901EB8000D0F8000C88
:1028F00080B20090BDF8000000F40040C0B14F4825
:10290000007801EB8000D0F8000CC0F30E0048F610
:102910008F710840494909784C4A02EB8101C1F89E
:10292000000C46490978491E494A52F8210080475F
:10293000BDF8000000F08000B8B14048007843497D
:1029400001EB8000D0F8000C48F60F7108403B49BD
:1029500009783E4A02EB8101C1F8000C3749097839
:10296000491E3C4A52F821008047354844300068EF
:1029700080B23149088000F4004000287FF4D2AED4
:1029800000BF30E710B500244AE047F6FF702C493D
:10299000443108602848008800F00F00274908707B
:1029A00008460078294901EB8000D0F8000C84B279
:1029B00004F40040C8B12148007801EB8000D0F851
:1029C000000CC0F30E0048F68F7108401B490978CF
:1029D0001E4A02EB8101C1F8000C18490978491E12
:1029E0001B4A52F8210080471AE004F08000B8B179
:1029F00012480078154901EB8000D0F8000C48F629
:102A00000F7108400D490978104A02EB8101C1F8A5
:102A1000000C0A490978491E0E4A52F821008047E5
:102A200007484430006880B20349088000F4004041
:102A30000028AAD110BD00001800002000010020CD
:102A4000005C0040140100201601002000500040EE
:102A5000380000201C000020F0B5144604F1010CE1
:102A60004FEA6C07DFF848C00CEB41033D460AE033
:102A70000678401C90F800C046EA0C2223F8022B8E
:102A80009B1C401C6D1E002DF2D1F0BDF0B5561CF4
:102A90007510074E06EB41042B4605E034F8047B25
:102AA00020F8017B401C5B1E002BF7D1F0BD00001D
:102AB00000600040FA4908607047F948006880B239
:102AC0007047F749091D08607047F548001D006808
:102AD00080B27047F2480830006880B27047F04911
:102AE0000C3108607047EE480C30006880B27047C7
:102AF0004FF6F8710140EA4A103211607047E84819
:102B00001030006880B27047E64B03EB8002C2F8D9
:102B1000001C70470146E34A02EB8100D0F8000C2C
:102B200080B2704710B5DF4B03EB8002D2F8002C67
:102B300048F68F131A400A43DA4C04EB8003C3F8BB
:102B4000002C10BD0146D74A02EB8100D0F8000CE2
:102B500000F4C060704730B5D24C04EB8003D3F86A
:102B6000003C48F6BF7403EA040201F010030BB105
:102B700082F0100201F020030BB182F0200242F437
:102B8000004343F08003C74D05EB8004C4F8003CCC
:102B900030BD30B5C34C04EB8003D3F8003C4BF69A
:102BA0008F7403EA040201F480530BB182F4805263
:102BB00001F400530BB182F4005242F4004343F09D
:102BC0008003B84D05EB8004C4F8003C30BD30B53F
:102BD00003460C461846FFF79DFF0546012C07D11A
:102BE00025F48050AF4A02EB8301C1F8000C08E0E5
:102BF000022C06D125F01000AA4A02EB8301C1F88D
:102C0000000C30BD0146A74A02EB8100D0F8000C51
:102C100000F0300070470146A24A02EB8100D0F874
:102C2000000C00F44050704710B59E4B03EB80023F
:102C3000D2F8002C48F6BF7302EA030181F01001BC
:102C400081F0200141F4004242F08002954C04EBF7
:102C50008003C3F8002C10BD10B5924B03EB80022B
:102C6000D2F8002C4BF68F7302EA030181F48051F5
:102C700081F4005141F4004242F08002894C04EB9F
:102C80008003C3F8002C10BD864A02EB8001D1F806
:102C9000001C41F4807148F68F72114048F28002A6
:102CA0001143804B03EB8002C2F8001C70477D4A41
:102CB00002EB8001D1F8001C48F68F62114048F207
:102CC00080021143774B03EB8002C2F8001C70476F
:102CD000744A02EB8001D1F8001C48F68F62114063
:102CE00048F2800211436F4B03EB8002C2F8001CD4
:102CF00070476C4A02EB8001D1F8001C41F48071EE
:102D000048F68F72114048F280021143654B03EB85
:102D10008002C2F8001C7047624A02EB8001D1F8C1
:102D2000001C41F4807148F68F72114048F2800215
:102D300011435C4B03EB8002C2F8001C7047594AF8
:102D400002EB8001D1F8001C48F68F62114048F276
:102D500080021143534B03EB8002C2F8001C704702
:102D60000146504A02EB8100D0F8000C00F0300020
:102D7000102801D1012070470020FCE70146494A94
:102D800002EB8100D0F8000C00F44050B0F5805FF9
:102D900001D1012070470020FCE7424A02EB80018C
:102DA000D1F8001CC1F30E0148F68F7211403D4B63
:102DB00003EB8002C2F8001C70473A4A02EB800124
:102DC000D1F8001C48F60F721140364B03EB80021D
:102DD000C2F8001C7047334A02EB8001D1F8001C96
:102DE00048F68F7211404CF2800211432D4B03EBD9
:102DF0008002C2F8001C70472A4A02EB8001D1F819
:102E0000001C48F68F72114048F2C0021143254B56
:102E100003EB8002C2F8001C7047224A02EB8001DB
:102E2000D1F8001C01F4804171B102EB8001D1F8AE
:102E3000001C48F68F7211404CF280021143194B6E
:102E400003EB8002C2F8001C7047164A02EB8001B7
:102E5000D1F8001C01F0400171B102EB8001D1F802
:102E6000001C48F68F72114048F2C00211430D4B0E
:102E700003EB8002C2F8001C704710B5094B03EB4E
:102E80008002D2F8002C48F68F731A4048F2800373
:102E90001A430A43034C04EB8003C3F8002C10BD13
:102EA000405C0040005000400146FC4A02EB8100BB
:102EB000D0F8000C00F00F00704710B54A10520017
:102EC000F74B1B689BB203EBC003F64C44F813208E
:102ED00010BD10B54A105300F14A126892B202EBCD
:102EE000C002121DEF4C44F8123010BD0146EC48F0
:102EF000006880B200EBC100EA4A32F8100080B2EC
:102F000070470146E648006880B200EBC100001D32
:102F1000E44A32F8100080B27047E14A126892B277
:102F200002EBC002921CDF4B43F8121070470246BE
:102F30003E290BDD481101F01F030BB9431E98B267
:102F40004FF4004343EA8023136007E0481001F088
:102F500001030BB1431C98B283021360704710B594
:102F60000246CF48006880B200EBC200801DCD4C05
:102F700004EB40033E290BDD481101F01F040CB99E
:102F8000441EA0B24FF4004444EA80241C6007E0D1
:102F9000481001F001040CB1441CA0B284021C6072
:102FA00010BD0146BE48006880B200EBC100801C25
:102FB000BC4A32F81000C0F3090070470146B84817
:102FC000006880B200EBC100801DB64A32F81000E4
:102FD000C0F30900704730B54B105B00B04C24685B
:102FE000A4B204EBC004AF4D45F8143053105C009C
:102FF000AB4B1B689BB203EBC0031B1D45F8134092
:1030000030BD10B54A105200A54B1B689BB203EBB4
:10301000C003A44C44F8132010BD10B54A1053004F
:103020009F4A126892B202EBC002121D9D4C44F8F6
:10303000123010BD01469A48006880B200EBC10012
:10304000984A32F8100080B27047014694480068F0
:1030500080B200EBC100001D924A32F8100080B22D
:10306000704730B50B46012B1FD18D49096889B2D5
:1030700001EBC001891C8B4D05EB41043E2A0BDDA1
:10308000511102F01F050DB94D1EA9B24FF40045B4
:1030900045EA8125256007E0511002F001050DB1D8
:1030A0004D1CA9B28D0225600AE0022B08D17C4993
:1030B000096889B201EBC001891C7A4C44F81120DF
:1030C000012B1FD17649096889B201EBC001891D26
:1030D000744D05EB41043E2A0BDD511102F01F0532
:1030E0000DB94D1EA9B24FF4004545EA8125256072
:1030F00007E0511002F001050DB14D1CA9B28D027F
:1031000025600AE0022B08D16549096889B201EB04
:10311000C001891D634C44F8112030BD30B5034611
:1031200001291FD15E48006880B200EBC300801CFB
:103130005C4D05EB40043E2A0BDD501102F01F05EB
:103140000DB9451EA8B24FF4004545EA802525601B
:1031500007E0501002F001050DB1451CA8B2850230
:1031600025600AE0022908D14D48006880B200EBD2
:10317000C300801C4B4C44F8102030BD30B50346D2
:1031800001291FD14648006880B200EBC300801DB2
:10319000444D05EB40043E2A0BDD501102F01F05A3
:1031A0000DB9451EA8B24FF4004545EA80252560BB
:1031B00007E0501002F001050DB1451CA8B28502D0
:1031C00025600AE0022908D13548006880B200EB8A
:1031D000C300801D334C44F8102030BD01463048F8
:1031E000006880B200EBC100801C2E4A32F810004B
:1031F000C0F30900704701462948006880B200EB1F
:10320000C100801D274A32F81000C0F30900704742
:1032100001462348006880B200EBC100801D214AAE
:1032200032F8100000F47C4008B1012070471C48BF
:10323000006880B200EBC100801C1A4A32F810000E
:10324000C0F3090008B10220F0E70020EEE710B556
:10325000012910D1114B03EB8002D2F8002C48F663
:103260008F731A4048F2C0031A430C4C04EB8003DE
:10327000C3F8002C11E002290FD1084B03EB8002A8
:10328000D2F8002C48F68F731A404CF280031A4390
:10329000024C04EB8003C3F8002C10BD005000402A
:1032A000505C004000600040024641EA0220704746
:1032B0000146CAB20B1243EA0220704700201D49A2
:1032C00008604FF43F401C490880084600881949AF
:1032D000091F0860002070472DE9F04104460E46A2
:1032E000154604F07F00FFF701FE0746AAB23946F3
:1032F0003046FFF7B1FBA9B204F07F00FFF70DFEE7
:103300000020BDE8F0812DE9F04104460E4600257D
:1033100004F07F00FFF752FE054604F07F00FFF740
:10332000F0FD07462A4639463046FFF7AFFB2846F0
:10333000BDE8F081445C00400E0100200CB5002087
:10334000019000906C48006840F480306A49086041
:1033500000BF6948006800F4003000900198401CEC
:103360000190009818B90198B0F5A06FF1D16248AA
:10337000006800F4003010B10120009001E000204E
:1033800000900098012843D15C48006840F010008C
:103390005A4908600846006820F0030008600846A3
:1033A000006840F002000860534840685249486095
:1033B0000846406848600846406840F480604860BD
:1033C0000846406820F47C1048600846406840F495
:1033D000E81048600846006840F08070086000BF50
:1033E0004548006800F000700028F9D04248406865
:1033F00020F00300404948600846406840F0020061
:10340000486000BF3C48406800F00C000828F9D133
:103410000CBD10B5FFF792FF10BD10B5364800681F
:1034200040F00100344908600846406834490840CB
:103430003149486008460068324908402E49086012
:103440000846006820F4802008600846406820F4A0
:10345000FE0048604FF41F008860FFF7DAFF4FF06E
:1034600000602949086010BD10B50021002000222D
:10347000214B5B6803F00C0121B1042906D0082917
:1034800028D107E0214B224C236027E01F4B204C22
:10349000236023E0184B5B6803F47010164B5B68E5
:1034A00003F48032022303EB904022B9194B4343CB
:1034B000174C23600DE0104B5B6803F4003323B11D
:1034C000144B4343124C236003E0104B4343104C16
:1034D000236003E00D4B0E4C236000BF00BF064B82
:1034E0005B68C3F303130C4CE15C094B1B68CB40D6
:1034F000074C236010BD0000001002400020024075
:103500000000FFF8FFFFF6FE08ED00E000127A0071
:103510001801002000093D001C01002009488047D7
:1035200009480047FEE7FEE7FEE7FEE7FEE7FEE7A5
:10353000FEE7FEE7FEE7FEE704480549054A064BBD
:10354000704700001B340008ED000008280200202E
:103550002808002028040020280400207047704715
:103560007047754600F02CF8AE4605006946534694
:1035700020F00700854618B020B5FFF7DDFFBDE855
:1035800020404FF000064FF000074FF000084FF0CA
:10359000000B21F00701AC46ACE8C009ACE8C0095B
:1035A000ACE8C009ACE8C0098D46704710B50446C8
:1035B000AFF300802046BDE81040FCF7FEBD0000E0
:1035C00000487047C801002001491820ABBEFEE743
:1035D00026000200704712010002FF00004010C5E3
:1035E00011B203020102000109022000010100C022
:1035F000320904000002FF0000000705010240003C
:10360000000705810240000004030904260343006B
:103610002D0053004B00590020004D00690063004D
:1036200072006F00730079007300740065006D0014
:103630007300440343002D0053004B005900200049
:1036400043004B004C0069006E006B002D004C00E5
:1036500069007400650020004600690072006D007A
:10366000770061007200650020004C006F0061006F
:103670006400650072000000983600080000002019
:103680002C01000028010008143700082C0100203C
:10369000FC0600008401000841021701134D0A0CCA
:1036A0001408B126040A19451C5113020113510BC9
:1036B0001B086B0413250C1B0827041A29041A2F56
:1036C000041A71041A35041A43041A510441324091
:1036D000293C1A05100916581A1D1C13D635330833
:1036E000121AE80832201308363308041A0C08327C
:1036F000261A3208F24459E02D0102030404480856
:1037000006070809020406A701192BA24A577939AE
:043710002935000057
:04000005080000ED02
:00000001FF
